{
  "_format": "hh-sol-artifact-1",
  "contractName": "Voting",
  "sourceName": "contracts/Voting.sol",
  "abi": [
    {
      "inputs": [],
      "stateMutability": "nonpayable",
      "type": "constructor"
    },
    {
      "anonymous": false,
      "inputs": [
        {
          "indexed": true,
          "internalType": "uint256",
          "name": "candidateId",
          "type": "uint256"
        },
        {
          "indexed": false,
          "internalType": "string",
          "name": "name",
          "type": "string"
        }
      ],
      "name": "CandidateRegistered",
      "type": "event"
    },
    {
      "anonymous": false,
      "inputs": [
        {
          "indexed": true,
          "internalType": "address",
          "name": "voter",
          "type": "address"
        },
        {
          "indexed": true,
          "internalType": "uint256",
          "name": "candidateId",
          "type": "uint256"
        }
      ],
      "name": "VoteCast",
      "type": "event"
    },
    {
      "inputs": [
        {
          "internalType": "uint256",
          "name": "",
          "type": "uint256"
        }
      ],
      "name": "candidates",
      "outputs": [
        {
          "internalType": "uint256",
          "name": "id",
          "type": "uint256"
        },
        {
          "internalType": "string",
          "name": "name",
          "type": "string"
        },
        {
          "internalType": "uint256",
          "name": "voteCount",
          "type": "uint256"
        }
      ],
      "stateMutability": "view",
      "type": "function"
    },
    {
      "inputs": [],
      "name": "candidatesCount",
      "outputs": [
        {
          "internalType": "uint256",
          "name": "",
          "type": "uint256"
        }
      ],
      "stateMutability": "view",
      "type": "function"
    },
    {
      "inputs": [],
      "name": "declareResults",
      "outputs": [
        {
          "internalType": "string",
          "name": "winner",
          "type": "string"
        },
        {
          "internalType": "uint256",
          "name": "winningVoteCount",
          "type": "uint256"
        }
      ],
      "stateMutability": "view",
      "type": "function"
    },
    {
      "inputs": [
        {
          "internalType": "uint256",
          "name": "_id",
          "type": "uint256"
        }
      ],
      "name": "getCandidate",
      "outputs": [
        {
          "internalType": "string",
          "name": "name",
          "type": "string"
        },
        {
          "internalType": "uint256",
          "name": "voteCount",
          "type": "uint256"
        }
      ],
      "stateMutability": "view",
      "type": "function"
    },
    {
      "inputs": [],
      "name": "getCandidateCount",
      "outputs": [
        {
          "internalType": "uint256",
          "name": "",
          "type": "uint256"
        }
      ],
      "stateMutability": "view",
      "type": "function"
    },
    {
      "inputs": [
        {
          "internalType": "address",
          "name": "_voter",
          "type": "address"
        }
      ],
      "name": "hasVoted",
      "outputs": [
        {
          "internalType": "bool",
          "name": "",
          "type": "bool"
        }
      ],
      "stateMutability": "view",
      "type": "function"
    },
    {
      "inputs": [],
      "name": "owner",
      "outputs": [
        {
          "internalType": "address",
          "name": "",
          "type": "address"
        }
      ],
      "stateMutability": "view",
      "type": "function"
    },
    {
      "inputs": [
        {
          "internalType": "string",
          "name": "_name",
          "type": "string"
        }
      ],
      "name": "registerCandidate",
      "outputs": [],
      "stateMutability": "nonpayable",
      "type": "function"
    },
    {
      "inputs": [
        {
          "internalType": "uint256",
          "name": "_candidateId",
          "type": "uint256"
        }
      ],
      "name": "vote",
      "outputs": [],
      "stateMutability": "nonpayable",
      "type": "function"
    },
    {
      "inputs": [
        {
          "internalType": "address",
          "name": "",
          "type": "address"
        }
      ],
      "name": "voters",
      "outputs": [
        {
          "internalType": "bool",
          "name": "",
          "type": "bool"
        }
      ],
      "stateMutability": "view",
      "type": "function"
    }
  ],
  "bytecode": "0x608060405234801561001057600080fd5b50336000806101000a81548173ffffffffffffffffffffffffffffffffffffffff021916908373ffffffffffffffffffffffffffffffffffffffff160217905550611340806100606000396000f3fe608060405234801561001057600080fd5b506004361061009e5760003560e01c80633477ee2e116100665780633477ee2e1461014a57806335b8e8201461017c5780638da5cb5b146101ad5780639eb88db6146101cb578063a3ec138d146101e75761009e565b80630121b93f146100a35780630248a341146100bf57806309eef43e146100de5780632d35a8a21461010e57806330a563471461012c575b600080fd5b6100bd60048036038101906100b89190610993565b610217565b005b6100c76103c0565b6040516100d5929190610a5f565b60405180910390f35b6100f860048036038101906100f39190610aed565b610536565b6040516101059190610b35565b60405180910390f35b61011661058c565b6040516101239190610b50565b60405180910390f35b610134610592565b6040516101419190610b50565b60405180910390f35b610164600480360381019061015f9190610993565b61059c565b60405161017393929190610b6b565b60405180910390f35b61019660048036038101906101919190610993565b61064e565b6040516101a4929190610a5f565b60405180910390f35b6101b561077e565b6040516101c29190610bb8565b60405180910390f35b6101e560048036038101906101e09190610d08565b6107a2565b005b61020160048036038101906101fc9190610aed565b610929565b60405161020e9190610b35565b60405180910390f35b600260003373ffffffffffffffffffffffffffffffffffffffff1673ffffffffffffffffffffffffffffffffffffffff16815260200190815260200160002060009054906101000a900460ff16156102a4576040517f08c379a000000000000000000000000000000000000000000000000000000000815260040161029b90610d9d565b60405180910390fd5b6000811180156102b657506003548111155b6102f5576040517f08c379a00000000000000000000000000000000000000000000000000000000081526004016102ec90610e09565b60405180910390fd5b6001600260003373ffffffffffffffffffffffffffffffffffffffff1673ffffffffffffffffffffffffffffffffffffffff16815260200190815260200160002060006101000a81548160ff02191690831515021790555060016000828152602001908152602001600020600201600081548092919061037490610e58565b9190505550803373ffffffffffffffffffffffffffffffffffffffff167fa36cc2bebb74db33e9f88110a07ef56e1b31b24b4c4f51b54b1664266e29f45b60405160405180910390a350565b606060008060035411610408576040517f08c379a00000000000000000000000000000000000000000000000000000000081526004016103ff90610eec565b60405180910390fd5b600060019050600060016000600181526020019081526020016000206002015490506000600290505b600354811161048857816001600083815260200190815260200160002060020154111561047557600160008281526020019081526020016000206002015491508092505b808061048090610e58565b915050610431565b5060016000838152602001908152602001600020600101818180546104ac90610f3b565b80601f01602080910402602001604051908101604052809291908181526020018280546104d890610f3b565b80156105255780601f106104fa57610100808354040283529160200191610525565b820191906000526020600020905b81548152906001019060200180831161050857829003601f168201915b505050505091509350935050509091565b6000600260008373ffffffffffffffffffffffffffffffffffffffff1673ffffffffffffffffffffffffffffffffffffffff16815260200190815260200160002060009054906101000a900460ff169050919050565b60035481565b6000600354905090565b60016020528060005260406000206000915090508060000154908060010180546105c590610f3b565b80601f01602080910402602001604051908101604052809291908181526020018280546105f190610f3b565b801561063e5780601f106106135761010080835404028352916020019161063e565b820191906000526020600020905b81548152906001019060200180831161062157829003601f168201915b5050505050908060020154905083565b60606000808311801561066357506003548311155b6106a2576040517f08c379a000000000000000000000000000000000000000000000000000000000815260040161069990610e09565b60405180910390fd5b600060016000858152602001908152602001600020604051806060016040529081600082015481526020016001820180546106dc90610f3b565b80601f016020809104026020016040519081016040528092919081815260200182805461070890610f3b565b80156107555780601f1061072a57610100808354040283529160200191610755565b820191906000526020600020905b81548152906001019060200180831161073857829003601f168201915b505050505081526020016002820154815250509050806020015181604001519250925050915091565b60008054906101000a900473ffffffffffffffffffffffffffffffffffffffff1681565b60008054906101000a900473ffffffffffffffffffffffffffffffffffffffff1673ffffffffffffffffffffffffffffffffffffffff163373ffffffffffffffffffffffffffffffffffffffff1614610830576040517f08c379a000000000000000000000000000000000000000000000000000000000815260040161082790610fde565b60405180910390fd5b6000815111610874576040517f08c379a000000000000000000000000000000000000000000000000000000000815260040161086b9061104a565b60405180910390fd5b6003600081548092919061088790610e58565b91905055506040518060600160405280600354815260200182815260200160008152506001600060035481526020019081526020016000206000820151816000015560208201518160010190816108de9190611216565b50604082015181600201559050506003547f96b6e1d9af8279de0ae4d01600bcae708bdb292c4a8f8f150aff92f5caf56a428260405161091e91906112e8565b60405180910390a250565b60026020528060005260406000206000915054906101000a900460ff1681565b6000604051905090565b600080fd5b600080fd5b6000819050919050565b6109708161095d565b811461097b57600080fd5b50565b60008135905061098d81610967565b92915050565b6000602082840312156109a9576109a8610953565b5b60006109b78482850161097e565b91505092915050565b600081519050919050565b600082825260208201905092915050565b60005b838110156109fa5780820151818401526020810190506109df565b60008484015250505050565b6000601f19601f8301169050919050565b6000610a22826109c0565b610a2c81856109cb565b9350610a3c8185602086016109dc565b610a4581610a06565b840191505092915050565b610a598161095d565b82525050565b60006040820190508181036000830152610a798185610a17565b9050610a886020830184610a50565b9392505050565b600073ffffffffffffffffffffffffffffffffffffffff82169050919050565b6000610aba82610a8f565b9050919050565b610aca81610aaf565b8114610ad557600080fd5b50565b600081359050610ae781610ac1565b92915050565b600060208284031215610b0357610b02610953565b5b6000610b1184828501610ad8565b91505092915050565b60008115159050919050565b610b2f81610b1a565b82525050565b6000602082019050610b4a6000830184610b26565b92915050565b6000602082019050610b656000830184610a50565b92915050565b6000606082019050610b806000830186610a50565b8181036020830152610b928185610a17565b9050610ba16040830184610a50565b949350505050565b610bb281610aaf565b82525050565b6000602082019050610bcd6000830184610ba9565b92915050565b600080fd5b600080fd5b7f4e487b7100000000000000000000000000000000000000000000000000000000600052604160045260246000fd5b610c1582610a06565b810181811067ffffffffffffffff82111715610c3457610c33610bdd565b5b80604052505050565b6000610c47610949565b9050610c538282610c0c565b919050565b600067ffffffffffffffff821115610c7357610c72610bdd565b5b610c7c82610a06565b9050602081019050919050565b82818337600083830152505050565b6000610cab610ca684610c58565b610c3d565b905082815260208101848484011115610cc757610cc6610bd8565b5b610cd2848285610c89565b509392505050565b600082601f830112610cef57610cee610bd3565b5b8135610cff848260208601610c98565b91505092915050565b600060208284031215610d1e57610d1d610953565b5b600082013567ffffffffffffffff811115610d3c57610d3b610958565b5b610d4884828501610cda565b91505092915050565b7f596f75206861766520616c726561647920766f74656400000000000000000000600082015250565b6000610d876016836109cb565b9150610d9282610d51565b602082019050919050565b60006020820190508181036000830152610db681610d7a565b9050919050565b7f496e76616c69642063616e646964617465204944000000000000000000000000600082015250565b6000610df36014836109cb565b9150610dfe82610dbd565b602082019050919050565b60006020820190508181036000830152610e2281610de6565b9050919050565b7f4e487b7100000000000000000000000000000000000000000000000000000000600052601160045260246000fd5b6000610e638261095d565b91507fffffffffffffffffffffffffffffffffffffffffffffffffffffffffffffffff8203610e9557610e94610e29565b5b600182019050919050565b7f4e6f2063616e6469646174657320726567697374657265640000000000000000600082015250565b6000610ed66018836109cb565b9150610ee182610ea0565b602082019050919050565b60006020820190508181036000830152610f0581610ec9565b9050919050565b7f4e487b7100000000000000000000000000000000000000000000000000000000600052602260045260246000fd5b60006002820490506001821680610f5357607f821691505b602082108103610f6657610f65610f0c565b5b50919050565b7f4f6e6c79206f776e65722063616e2063616c6c20746869732066756e6374696f60008201527f6e00000000000000000000000000000000000000000000000000000000000000602082015250565b6000610fc86021836109cb565b9150610fd382610f6c565b604082019050919050565b60006020820190508181036000830152610ff781610fbb565b9050919050565b7f43616e646964617465206e616d652063616e6e6f7420626520656d7074790000600082015250565b6000611034601e836109cb565b915061103f82610ffe565b602082019050919050565b6000602082019050818103600083015261106381611027565b9050919050565b60008190508160005260206000209050919050565b60006020601f8301049050919050565b600082821b905092915050565b6000600883026110cc7fffffffffffffffffffffffffffffffffffffffffffffffffffffffffffffffff8261108f565b6110d6868361108f565b95508019841693508086168417925050509392505050565b6000819050919050565b600061111361110e6111098461095d565b6110ee565b61095d565b9050919050565b6000819050919050565b61112d836110f8565b6111416111398261111a565b84845461109c565b825550505050565b600090565b611156611149565b611161818484611124565b505050565b5b818110156111855761117a60008261114e565b600181019050611167565b5050565b601f8211156111ca5761119b8161106a565b6111a48461107f565b810160208510156111b3578190505b6111c76111bf8561107f565b830182611166565b50505b505050565b600082821c905092915050565b60006111ed600019846008026111cf565b1980831691505092915050565b600061120683836111dc565b9150826002028217905092915050565b61121f826109c0565b67ffffffffffffffff81111561123857611237610bdd565b5b6112428254610f3b565b61124d828285611189565b600060209050601f831160018114611280576000841561126e578287015190505b61127885826111fa565b8655506112e0565b601f19841661128e8661106a565b60005b828110156112b657848901518255600182019150602085019450602081019050611291565b868310156112d357848901516112cf601f8916826111dc565b8355505b6001600288020188555050505b505050505050565b600060208201905081810360008301526113028184610a17565b90509291505056fea2646970667358221220a9f2efb20ba438d97a4576be583d0f9f877e11312f53c1e41e4458ffbd17d0f764736f6c63430008130033",
  "linkReferences": {},
  "deployedLinkReferences": {}
}